:10000000F8FF0020110400006B2300006B230000A8
:100010006B2300006B2300006B2300006B230000A8
:100020006B2300006B2300006B2300006B23000098
:100030006B2300006B2300006B2300006B23000088
:100040006B2300006B2300006B2300006B23000078
:10040000FFFFFFFFFFFFFFFFFFFFFFFFFEFFFFFFFD
:1004100062B605F087FEFEE710B500200400E4B2E6
:10042000082C08DA0022012114F12000C0B201F0EA
:10043000FFFD641CF3E700220121192001F0F8FD03
:10044000012201211C2001F0F3FD012201211320D2
:1004500001F0EEFD002201211B2001F0E9FD002248
:100460000121102001F0E4FD4FF4A071192001F0EA
:1004700073FE4FF4A0711C2001F06EFE4FF4A071CA
:10048000132001F069FE4FF4A0711B2001F064FEFF
:100490000020DFF8241D08600120DFF81C1D086023
:1004A0004FF4FA7001F0CBFE0120DFF8101D086058
:1004B0000020DFF80C1D08600020DFF8081D086030
:1004C0001120DFF8041D08700020DFF8001D08600F
:1004D0000120DFF8F81C08600120DFF8E81C086044
:1004E000782001F0ACFE0120DFF8D01C086000206D
:1004F000DFF8CC1C08600020DFF8C81C0860B120C1
:10050000DFF8C41C08700020DFF8C01C0860012060
:10051000DFF8B81C08600120DFF8A81C0860012083
:10052000DFF8981C08600120DFF8941C08600020A8
:10053000DFF8901C08600520DFF88C1C0870002094
:10054000DFF8881C08600120DFF8801C08600120AB
:10055000DFF8701C08600120DFF8601C08600120D3
:10056000DFF85C1C08600020DFF8581C08603A20A7
:10057000DFF8541C08700020DFF8501C08600120D0
:10058000DFF8481C08600120DFF8381C08600120F3
:10059000DFF8281C08600120DFF8241C0860002018
:1005A000DFF8201C08603A20DFF81C1C08700020CF
:1005B000DFF8181C08600120DFF8101C086001201B
:1005C000DFF8001C08600120DFF8F01B0860002045
:1005D000DFF8EC1B08600020DFF8E81B0860B220A1
:1005E000DFF8E41B08700020DFF8E01B0860012042
:1005F000DFF8D81B08600120DFF8C81B0860012065
:10060000DFF8B81B08600120DFF8B41B0860002089
:10061000DFF8B01B08600520DFF8AC1B0870002075
:10062000DFF8A81B08600120DFF8A01B086001208C
:10063000DFF8901B08600120DFF8801B08600120B4
:10064000DFF87C1B08600020DFF8781B08603A2088
:10065000DFF8741B08700020DFF8701B08600120B1
:10066000DFF8681B08600120DFF8581B08600120D4
:10067000DFF8481B08600120DFF8441B08600020F9
:10068000DFF8401B08603A20DFF83C1B08700020B0
:10069000DFF8381B08600120DFF8301B08600120FC
:1006A000DFF8201B08600120DFF8101B0860002025
:1006B000DFF80C1B08600020DFF8081B0860B3207F
:1006C000DFF8041B08700020DFF8001B0860012021
:1006D000DFF8F81A08600120DFF8E81A0860012046
:1006E000DFF8D81A08600120DFF8D41A086000206B
:1006F000DFF8D01A08600520DFF8CC1A0870002057
:10070000DFF8C81A08600120DFF8C01A086001206D
:10071000DFF8B01A08600120DFF8A01A0860012095
:10072000DFF89C1A08600020DFF8981A08603A2069
:10073000DFF8941A08700020DFF8901A0860012092
:10074000DFF8881A08600120DFF8781A08600120B5
:10075000DFF8681A08600120DFF8641A08600020DA
:10076000DFF8601A08603A20DFF85C1A0870002091
:10077000DFF8581A08600120DFF8501A08600120DD
:10078000DFF8401A08600120DFF8301A0860012005
:10079000DFF82C1A08600020DFF8281A086005200E
:1007A000DFF8241A08700020DFF8201A0860012002
:1007B000DFF8181A08600120DFF8081A0860012025
:1007C000DFF8F81908600120DFF8F419086000204C
:1007D000DFF8F01908603A20DFF8EC190870002003
:1007E000DFF8E81908600120DFF8E019086001204F
:1007F000DFF8D01908600120DFF8C0190860012077
:10080000DFF8BC1908600020DFF8B81908603A204A
:10081000DFF8B41908700020DFF8B0190860012073
:10082000DFF8A81908600120DFF898190860012096
:10083000DFF8881908600020DFF8841908600020BC
:10084000DFF880190860B420DFF87C1908700020F8
:10085000DFF8781908600120DFF8701908600120BE
:10086000DFF8601908600120DFF8501908600120E6
:10087000DFF84C1908600020DFF8481908600720ED
:10088000DFF8441908700020DFF8401908600120E3
:10089000DFF8381908600120DFF828190860012006
:1008A000DFF8181908600020DFF81419086000202C
:1008B000DFF810190860C020DFF80C19087000205C
:1008C000DFF8081908600120DFF80019086001202E
:1008D000DFF8F01808600120DFF8E0180860012058
:1008E000DFF8DC1808600020DFF8D818086028203E
:1008F000DFF8D41808700020DFF8D0180860012055
:10090000DFF8C81808600120DFF8B8180860012077
:10091000DFF8A81808600120DFF8A418086000209C
:10092000DFF8A01808600820DFF89C180870002085
:10093000DFF8981808600120DFF89018086001209F
:10094000DFF8801808600120DFF8701808600120C7
:10095000DFF86C1808600020DFF868180860842051
:10096000DFF8641808700020DFF8601808600120C4
:10097000DFF8581808600120DFF8481808600120E7
:10098000DFF8381808600020DFF83418086000200D
:10099000DFF830180860C120DFF82C18087000203C
:1009A000DFF8281808600120DFF82018086001200F
:1009B000DFF8101808600120DFF800180860012037
:1009C000DFF8FC1708600020DFF8F8170860C02087
:1009D000DFF8F41708700020DFF8F0170860012036
:1009E000DFF8E81708600120DFF8D8170860012059
:1009F000DFF8C81708600020DFF8C417086000207F
:100A0000DFF8C0170860C220DFF8BC1708700020AC
:100A1000DFF8B81708600120DFF8B0170860012080
:100A2000DFF8A01708600120DFF8901708600120A8
:100A3000DFF88C1708600020DFF8881708600C20AA
:100A4000DFF8841708700020DFF8801708600120A5
:100A5000DFF8781708600120DFF8681708600120C8
:100A6000DFF8581708600120DFF8541708600020ED
:100A7000DFF8501708600020DFF84C1708700020DE
:100A8000DFF8481708600120DFF8401708600120F0
:100A9000DFF8301708600120DFF820170860002019
:100AA000DFF81C1708600020DFF818170860C32063
:100AB000DFF8141708700020DFF810170860012015
:100AC000DFF8081708600120DFF8F8160860012039
:100AD000DFF8E81608600120DFF8E416086000205F
:100AE000DFF8E01608608C20DFF8DC1608700020C4
:100AF000DFF8D81608600120DFF8D0160860012062
:100B0000DFF8C01608600120DFF8B0160860012089
:100B1000DFF8AC1608600020DFF8A81608602A206D
:100B2000DFF8A41608700020DFF8A0160860012086
:100B3000DFF8981608600120DFF8881608600120A9
:100B4000DFF8781608600020DFF8741608600020CF
:100B5000DFF870160860C420DFF86C1608700020FB
:100B6000DFF8681608600120DFF8601608600120D1
:100B7000DFF8501608600120DFF8401608600120F9
:100B8000DFF83C1608600020DFF8381608608A207D
:100B9000DFF8341608700020DFF8301608600120F6
:100BA000DFF8281608600120DFF818160860012019
:100BB000DFF8081608600120DFF80416086000203E
:100BC000DFF800160860EE20DFF8FC150870002042
:100BD000DFF8F81508600120DFF8F0150860012043
:100BE000DFF8E01508600120DFF8D015086000206C
:100BF000DFF8CC1508600020DFF8C8150860C520B4
:100C0000DFF8C41508700020DFF8C0150860012067
:100C1000DFF8B81508600120DFF8A815086001208A
:100C2000DFF8981508600120DFF8941508600020AF
:100C3000DFF8901508600C20DFF88C150870002094
:100C4000DFF8881508600120DFF8801508600120B2
:100C5000DFF8701508600120DFF8601508600020DB
:100C6000DFF85C1508600020DFF858150860E02008
:100C7000DFF8541508700020DFF8501508600120D7
:100C8000DFF8481508600120DFF8381508600120FA
:100C9000DFF8281508600120DFF82415086000201F
:100CA000DFF8201508600520DFF81C15087000200B
:100CB000DFF8181508600120DFF810150860012022
:100CC000DFF8001508600120DFF8F014086001204B
:100CD000DFF8EC1408600020DFF8E81408601A2040
:100CE000DFF8E41408700020DFF8E0140860012049
:100CF000DFF8D81408600120DFF8C814086001206C
:100D0000DFF8B81408600120DFF8B4140860002090
:100D1000DFF8B01408600C20DFF8AC140870002075
:100D2000DFF8A81408600120DFF8A0140860012093
:100D3000DFF8901408600120DFF8801408600120BB
:100D4000DFF87C1408600020DFF8781408600E20BB
:100D5000DFF8741408700020DFF8701408600120B8
:100D6000DFF8681408600120DFF8581408600120DB
:100D7000DFF8481408600120DFF844140860002000
:100D8000DFF8401408603A20DFF83C1408700020B7
:100D9000DFF8381408600120DFF830140860012003
:100DA000DFF8201408600120DFF81014086001202B
:100DB000DFF80C1408600020DFF808140860342005
:100DC000DFF8041408700020DFF800140860012028
:100DD000DFF8F81308600120DFF8E813086001204D
:100DE000DFF8D81308600120DFF8D4130860002072
:100DF000DFF8D01308602D20DFF8CC130870002036
:100E0000DFF8C81308600120DFF8C0130860012074
:100E1000DFF8B01308600120DFF8A013086001209C
:100E2000DFF89C1308600020DFF8981308602F207B
:100E3000DFF8941308700020DFF890130860012099
:100E4000DFF8881308600120DFF8781308600120BC
:100E5000DFF8681308600120DFF8641308600020E1
:100E6000DFF8601308602D20DFF85C1308700020A5
:100E7000DFF8581308600120DFF8501308600120E4
:100E8000DFF8401308600120DFF83013086001200C
:100E9000DFF82C1308600020DFF8281308602A20F0
:100EA000DFF8241308700020DFF820130860012009
:100EB000DFF8181308600120DFF80813086001202C
:100EC000DFF8F81208600120DFF8F4120860002053
:100ED000DFF8F01208602F20BB4908700020BB49E2
:100EE00008600120B94908600120B6490860012066
:100EF000B24908600120B24908600020B149086089
:100F00003C20B14908700020B04908600120AF4979
:100F100008600120AB4908600120A8490860012051
:100F2000A74908600020A74908600020A64908706A
:100F30000020A64908600120A44908600120A149B9
:100F4000086001209D49086001209D49086000203B
:100F50009C49086001209C49087000209B4908605A
:100F600001209A49086001209649086001209349B0
:100F70000860012092490860002092490860022020
:100F80009149087000209149086001208F4908604C
:100F900001208C49086001208849086001208849A7
:100FA00008600020874908601020874908700020E9
:100FB0008649086001208549086001208149086050
:100FC00001207E49086000207D49086000207D499D
:100FD0000860E1207C49087000207C4908600120FD
:100FE0007A49086001207749086001207349086048
:100FF000012073490860002072490860042072498A
:1010000008700020714908600120704908600120C3
:101010006C4908600120694908600120684908603E
:101020000020684908601B20674908700020674954
:1010300008600120654908600120624908600120BC
:101040005E49086001205E49086000205D49086033
:101050000D205D49087000205C49086001205B4953
:1010600008600120574908600120544908600120A8
:10107000534908600020534908600E205249087007
:1010800000205249086001205049086001204D4964
:101090000860012049490860012049490860002092
:1010A000484908602D2048490870002047490860D9
:1010B00001204649086001204249086001203F495B
:1010C000086001203E49086000203E490860292050
:1010D0003D49087000203D49086001203B490860F7
:1010E0000120384908600120344908600120344952
:1010F000086000203349086024203349087000202C
:101100003249086001203149086001202D490860FA
:1011100001202A4908600120294908600020294946
:10112000086029202849087000202849086001200B
:101130002649086001202349086001201F490860F2
:1011400001201F49086000201E49086028201E4910
:10115000087000201D49086001201C49086001201A
:1011600018490860012015490860012014490860E9
:1011700000201449086026201349087000201349F4
:10118000086001201149086001200E490860012013
:101190000A49086001200A490860002009490860DE
:1011A00031200949087000200849086001200749DA
:1011B0000860012003490BE04000FE437000FE433D
:1011C0006C00FE434C00FE4340F00F406400FE43C1
:1011D00008600120DFF80C1C08600120DFF8081C03
:1011E00008600020DFF8041C08603B20DFF8001CCA
:1011F00008700020DFF8FC1B08600120DFF8F41BFA
:1012000008600120DFF8E41B08600120DFF8D41B30
:1012100008600120DFF8D01B08600020DFF8CC1B3D
:1012200008600020DFF8C81B08700020DFF8C41B2E
:1012300008600120DFF8BC1B08600120DFF8AC1B50
:1012400008600120DFF89C1B08600120DFF8981B74
:1012500008600020DFF8941B08600020DFF8901B76
:1012600008700020DFF88C1B08600120DFF8841B69
:1012700008600120DFF8741B08600120DFF8641BA0
:1012800008600120DFF8601B08600020DFF85C1BAD
:1012900008600320DFF8581B08700020DFF8541B9B
:1012A00008600120DFF84C1B08600120DFF83C1BC0
:1012B00008600120DFF82C1B08600120DFF8281BE4
:1012C00008600020DFF8241B08601220DFF8201BD4
:1012D00008700020DFF81C1B08600120DFF8141BD9
:1012E00008600120DFF8041B08600120DFF8F41A11
:1012F00008600020DFF8F01A08600020DFF8EC1A20
:1013000008603A20DFF8E81A08700020DFF8E41AD5
:1013100008600120DFF8DC1A08600120DFF8CC1A31
:1013200008600120DFF8BC1A08600120DFF8B81A55
:1013300008600020DFF8B41A08600520DFF8B01A52
:1013400008700020DFF8AC1A08600120DFF8A41A4A
:1013500008600120DFF8941A08600120DFF8841A81
:1013600008600020DFF8801A08600020DFF87C1A8F
:1013700008602920DFF8781A08700020DFF8741A56
:1013800008600120DFF86C1A08600120DFF85C1AA1
:1013900008600120DFF84C1A08600020DFF8481AC6
:1013A00008600020DFF8441A08602C20DFF8401A9B
:1013B00008700020DFF83C1A08600120DFF8341ABA
:1013C00008600120DFF8241A0860DFF8400C00787C
:1013D00000F001F810BD10B50400E4B2042C04DBE9
:1013E000C821DFF82C0C00F056FFDFF8200C047049
:1013F000E4B2002C09D0022C00F0B982C0F05E816A
:10140000032C00F0EA8300F0EBBC0120DFF8D419D4
:1014100008600020DFF8D01908600020DFF8CC1940
:1014200008603620DFF8C81908700020DFF8C419FA
:1014300008600120DFF8BC1908600120DFF8AC1952
:1014400008600120DFF89C1908600120DFF8981976
:1014500008600020DFF894190860C820DFF89019B0
:1014600008700020DFF88C1908600120DFF884196B
:1014700008600120DFF8741908600120DFF86419A2
:1014800008600020DFF8601908600020DFF85C19B0
:1014900008602A20DFF8581908700020DFF8541976
:1014A00008600120DFF84C1908600120DFF83C19C2
:1014B00008600120DFF82C1908600120DFF82819E6
:1014C00008600020DFF8241908600020DFF82019E8
:1014D00008700020DFF81C1908600120DFF81419DB
:1014E00008600120DFF8041908600120DFF8F41813
:1014F00008600120DFF8F01808600020DFF8EC1821
:1015000008600020DFF8E81808700020DFF8E41811
:1015100008600120DFF8DC1808600120DFF8CC1833
:1015200008600120DFF8BC1808600120DFF8B81857
:1015300008600020DFF8B41808600020DFF8B01859
:1015400008700020DFF8AC1808600120DFF8A4184C
:1015500008600120DFF8941808600120DFF8841883
:1015600008600120DFF8801808600020DFF87C1890
:1015700008608020DFF8781808700020DFF8741801
:1015800008600120DFF86C1808600120DFF85C18A3
:1015900008600120DFF84C1808600020DFF84818C8
:1015A00008600020DFF8441808602B20DFF840189E
:1015B00008700020DFF83C1808600120DFF83418BC
:1015C00008600120DFF8241808600120DFF81418F3
:1015D00008600120DFF8101808600020DFF80C1800
:1015E00008600020DFF8081808700020DFF80418F1
:1015F00008600120DFF8FC1708600120DFF8EC1715
:1016000008600120DFF8DC1708600120DFF8D81738
:1016100008600020DFF8D41708603220DFF8D01708
:1016200008700020DFF8CC1708600120DFF8C4172D
:1016300008600120DFF8B41708600120DFF8A41764
:1016400008600120DFF8A01708600020DFF89C1771
:1016500008600020DFF8981708700020DFF8941762
:1016600008600120DFF88C1708600120DFF87C1784
:1016700008600120DFF86C1708600120DFF86817A8
:1016800008600020DFF864170860B220DFF86017F8
:1016900008700020DFF85C1708600120DFF854179D
:1016A00008600120DFF8441708608020DFF8641923
:1016B00008808020DFF86019088091E30120DFF8BE
:1016C000241708600020DFF8201708600020DFF8EA
:1016D0001C1708603620DFF8181708700020DFF8A4
:1016E000141708600120DFF80C1708600120DFF8EC
:1016F000FC1608600120DFF8EC1608600120DFF816
:10170000E81608600020DFF8E4160860A820DFF87B
:10171000E01608700020DFF8DC1608600120DFF812
:10172000D41608600120DFF8C41608600120DFF835
:10173000B41608600020DFF8B01608600020DFF85B
:10174000AC1608602A20DFF8A81608700020DFF821
:10175000A41608600120DFF89C1608600120DFF85D
:101760008C1608600120DFF87C1608600120DFF885
:10177000781608600020DFF8741608600020DFF893
:10178000701608700020DFF86C1608600120DFF882
:10179000641608600120DFF8541608600120DFF8A5
:1017A000441608600120DFF8401608600020DFF8CA
:1017B0003C1608600320DFF8381608700020DFF8B8
:1017C000341608600120DFF82C1608600120DFF8CD
:1017D0001C1608600120DFF80C1608600120DFF8F5
:1017E000081608600020DFF8041608600020DFF803
:1017F000001608700020DFF8FC1508600120DFF8F3
:10180000F41508600120DFF8E41508600120DFF816
:10181000D41508600120DFF8D01508600020DFF83B
:10182000CC1508608220DFF8C81508700020DFF8AA
:10183000C41508600120DFF8BC1508600120DFF83E
:10184000AC1508600120DFF89C1508600020DFF867
:10185000981508600020DFF8941508602B20DFF849
:10186000901508700020DFF88C1508600120DFF863
:10187000841508600120DFF8741508600120DFF886
:10188000641508600120DFF8601508600020DFF8AB
:101890005C1508600020DFF8581508700020DFF89C
:1018A000541508600120DFF84C1508600120DFF8AE
:1018B0003C1508600120DFF82C1508600120DFF8D6
:1018C000281508600020DFF8241508600220DFF8E2
:1018D000201508700020DFF81C1508600120DFF8D3
:1018E000141508600120DFF8041508600120DFF8F6
:1018F000F41408600120DFF8F01408600020DFF81D
:10190000EC1408600020DFF8E81408700020DFF80D
:10191000E41408600120DFF8DC1408600120DFF81F
:10192000CC1408600120DFF8BC1408600120DFF847
:10193000B81408600020DFF8B41408608120DFF8D4
:10194000B01408700020DFF8AC1408600120DFF844
:10195000A41408600120DFF8941408608020DFF8E8
:10196000B41608808020DFF8B016088038E2012025
:10197000DFF8701408600020DFF86C1408600020A5
:10198000DFF8681408603620DFF86414087000205F
:10199000DFF8601408600120DFF8581408600120A7
:1019A000DFF8481408600120DFF8381408600120CF
:1019B000DFF8341408600020DFF8301408600820D5
:1019C000DFF82C1408700020DFF8281408600120CC
:1019D000DFF8201408600120DFF8101408600120EF
:1019E000DFF8001408600020DFF8FC130860002016
:1019F000DFF8F81308602A20DFF8F41308700020DD
:101A0000DFF8F01308600120DFF8E8130860012018
:101A1000DFF8D81308600120DFF8C8130860012040
:101A2000DFF8C41308600020DFF8C013086000204E
:101A3000DFF8BC1308700020DFF8B813086001203D
:101A4000DFF8B01308600120DFF8A0130860012060
:101A5000DFF8901308600120DFF88C130860002085
:101A6000DFF8881308600220DFF884130870002074
:101A7000DFF8801308600120DFF878130860012088
:101A8000DFF8681308600120DFF8581308600120B0
:101A9000DFF8541308600020DFF8501308600020BE
:101AA000DFF84C1308700020DFF8481308600120AD
:101AB000DFF8401308600120DFF8301308600120D0
:101AC000DFF8201308600120DFF81C1308600020F5
:101AD000DFF8181308608120DFF814130870002065
:101AE000DFF8101308600120DFF8081308600120F8
:101AF000DFF8F81208600120BA4908600020BA49EE
:101B000008600020B94908602B20B94908700020FE
:101B1000B84908600120B74908600120B34908604E
:101B20000120B04908600120AF4908600020AF499A
:101B300008600020AE4908700020AE49086001200E
:101B4000AC4908600120A94908600120A549086046
:101B50000120A54908600020A44908600320A44989
:101B600008700020A34908600120A24908600120F4
:101B70009E49086001209B49086001209A4908603D
:101B800000209A490860002099490870002099496E
:101B900008600120974908600120944908600120ED
:101BA0009049086001209049086000208F49086032
:101BB00082208F49087000208E49086001208D49DD
:101BC00008600120894908608020DFF848140880F7
:101BD0008020DFF84414088002E101208149086078
:101BE0000020814908600020804908603620804933
:101BF000087000207F49086001207E4908600120AC
:101C00007A49086001207749086001207649086018
:101C100000207649086068207549087000207549E1
:101C200008600120734908600120704908600120A4
:101C30006C49086000206C49086000206B4908600E
:101C40002A206B49087000206A4908600120694910
:101C50000860012065490860012062490860012090
:101C600061490860002061490860002060490870EF
:101C700000206049086001205E49086001205B493E
:101C8000086001205749086001205749086000207A
:101C900056490860032056490870002055490860DD
:101CA00001205449086001205049086001204D4935
:101CB000086001204C49086000204C490860002061
:101CC0004B49087000204B490860012049490860D1
:101CD000012046490860012042490860012042492C
:101CE00008600020414908608220414908700020B6
:101CF0004049086001203F49086001203B490860D5
:101D00000120384908600020374908600020374921
:101D100008602B20364908700020364908600120F1
:101D20003449086001203149086001202D490860CC
:101D300001202D49086000202C49086000202C4912
:101D4000087000202B49086001202A490860012002
:101D500026490860012023490860012022490860C3
:101D600000202249086000202149087000202149F4
:101D7000086001201F49086001201C4908600120FB
:101D800018490860012018490860002017490860B8
:101D900000201749087000201649086001201549E5
:101DA000086001201149086001200E4908600120E7
:101DB0000D49086000200D49086080200C4908701A
:101DC00000200C49086001200A49086001200749E9
:101DD000086080208F49088080208F490880FFE7B5
:101DE00010BD00007000FE436C00FE434C00FE433B
:101DF00040F00F406400FE4303B484480078C007FD
:101E000005D5BDF800002030ADF8000004E0BDF8B5
:101E100002002030ADF80200012080490860002057
:101E20007F49086000207F4908602A207E490870A9
:101E300000207E49086001207C4908600120794922
:101E4000086001207549086001207549086000207C
:101E500074490860BDF8000080B2000A7249087039
:101E600000207249086001207049086001206D4916
:101E70000860012069490860012069490860002064
:101E800068490860BDF8000067490870002067498C
:101E9000086001206549086001206249086001204E
:101EA0005E49086001205E49086000205D490860C5
:101EB000BDF80000BDF8041011FA80F0401E0012B9
:101EC00059490870002059490860012057490860A5
:101ED0000120544908600120504908600120504900
:101EE000086000204F490860BDF80000BDF80410EC
:101EF0000818401E4C49087000204C490860012019
:101F00004A490860012047490860012043490860A8
:101F10000020434908600020424908602B204249C4
:101F200008700020414908600120404908600120F4
:101F30003C4908600120394908600120384908609F
:101F4000002038490860BDF8020080B2000A364916
:101F500008700020354908600120344908600120DC
:101F60003049086001202D49086001202C49086093
:101F700000202C490860BDF802002B4908700020A1
:101F80002A49086001202949086001202549086084
:101F900001202249086001202149086000202149D0
:101FA0000860BDF80200BDF8061011FA80F0401E6E
:101FB00000121D49087000201C49086001201B49BF
:101FC00008600120174908600120144908600120B9
:101FD00013490860002013490860BDF80200BDF8ED
:101FE00006100818401E1049087000200F490860AC
:101FF00001200E49086001200A49086002B07047BC
:10200000044800887047044800887047F410FF1F98
:10201000FC640000B40BFF1FB60BFF1F7000FE43F3
:102020006C00FE434C00FE4340F00F406400FE4352
:1020300070B504000D0016004FF480712000C0B28E
:1020400000F08AF86DB2002D11D14148E4B261115F
:1020500050F821003E49E4B2621151F8221049695A
:10206000012214F01F039A409143416136E0384841
:10207000E4B2611150F821003549E4B2621151F81F
:1020800022104969012214F01F039A401143416153
:10209000F6B2002E11D12E48E4B2611150F82100A1
:1020A0000068012114F01F02914088432849E4B2DE
:1020B000621151F82210086010E02548E4B2611165
:1020C00050F821000068012114F01F0291400843DC
:1020D0001F49E4B2621151F82210086070BD10B5BA
:1020E00004001B48E4B2611150F82100406914F06B
:1020F0001F01C840C00703D47B21164800F0CBF86D
:102100001348E4B2611150F82100012114F01F02BC
:102110009140C16010BD10B504000D48E4B26111DA
:1021200050F82100406914F01F01C840C00703D5D2
:102130008C21084800F0AFF80548E4B2611150F86E
:102140002100006914F01F01C84010F0010010BD0B
:10215000240BFF1F8C65000010B4294A12684FF44D
:102160000073C0B24409A3401A43254B1A60254AA4
:10217000C0B2431152F82320012310F01F04A340E2
:10218000C2F8A0301F4AC0B2431152F82320C0B297
:1021900010F01F0342F8231010BC704710B4184A07
:1021A00012684FF40073C0B24409A3401A43144BA1
:1021B0001A60144AC0B2431152F82320012310F0D0
:1021C0001F04A340C2F8A03031F4E0610D4AC0B250
:1021D000431152F82320C0B210F01F0352F82320FD
:1021E00012F4E0621143074AC0B2431152F82320AF
:1021F000C0B210F01F0342F8231010BC704700005B
:1022000038800440800BFF1F10B50400002C15D04F
:10221000B4F1807F03D329210F4800F03CF800205F
:102220000E4908600E48046000200E490860052031
:102230000A49086009480068C003FBD510BD10B505
:1022400004002000441E002804D007480068FFF75F
:10225000DBFFF6E710BD0000D065000010E000E0F5
:1022600014E000E018E000E09410FF1FDFF800F039
:10227000990CFF1FDFF800F0C90CFF1FBFF34F8F51
:102280004648006810F4E060454908434349086047
:10229000BFF34F8FFEE738B504000D00002000F0BB
:1022A0008DF82A0021003F4800F0C0F8002000F01F
:1022B000A2F84FF47A70FFF7C2FFF2E738B50400D6
:1022C0000D00210049B2042000F0CEF9200032BDFB
:1022D00010B50024042000F0F3F9042000F026FAE1
:1022E000002841D1002000F069F8042000F01EFA17
:1022F000012801D101200400002000F07CF82A48C8
:1023000000F094F84FF4FA70FFF799FFE4B2012C53
:10231000EBD1042000F00AFA0028E6D1042000F0F6
:1023200005FA002806D1002000F065F86420FFF7C8
:1023300086FFF3E7042000F0F9F9012806D1002018
:1023400000F059F83220FFF77AFFF3E7174800F062
:102350006DF8FFF78BFF6420FFF771FF0020FFF798
:1023600089FFFFF78BFFC0E710BD10B51048046868
:10237000012000F023F8012000F03DF80D48E4B200
:102380000F2101FB0402E4B221000B4800F04EF8DB
:102390004FF47A70FFF753FFEDE700000CED00E01B
:1023A0000400FA0578670000E4680000F4670000A4
:1023B00004ED00E01004FF1F1467000010B50400D6
:1023C00064B2042C07DA01220121174864B2205CB0
:1023D000FFF72EFE0EE0042004002000441E40B251
:1023E000002807D0012201210F4864B2205CFFF7CA
:1023F0001FFEF2E710BD10B5040064B2042C05DA2C
:10240000094864B2205CFFF76AFE0CE00420040077
:102410002000441E40B2002805D0034864B2205C6E
:10242000FFF75DFEF4E710BDB80BFF1F0EB400B55B
:1024300082B003A90091024600AB01210348784411
:102440000A3000F08BF906BC5DF810FB7544000003
:102450002DE9F84304000D0064B2002C08D0022CD2
:102460002CD018D3042C4FD03BD3052C5FD071E077
:10247000DFF83402006850F48060DFF82C12086046
:102480004FF440716620FFF767FE4FF440716720FC
:10249000FFF762FE5EE0DFF81002006850F40060B3
:1024A000DFF8041208604FF440714320FFF754FE38
:1024B0004FF440714420FFF74FFE4BE0DFF8E80196
:1024C000006850F48050DFF8E01108604FF440716C
:1024D0006320FFF741FE4FF440716220FFF73CFE9E
:1024E00038E0DFF8C401006850F40050DFF8B8119C
:1024F00008604FF440715020FFF72EFE4FF44071FA
:102500005120FFF729FE25E0DFF8A001006850F414
:102510008060DFF8981108604FF440719920FFF750
:102520001BFE4FF440719820FFF716FE12E0DFF813
:102530007C01006850F40060DFF8701108604FF40F
:1025400040718920FFF708FE4FF440718820FFF7A3
:1025500003FEFFE7DFF8580164B250F82400C078AA
:1025600010F0F300DFF8481164B251F82410C8707D
:10257000DFF83C0164B250F824008078DFF83011B5
:1025800064B251F82410887064B2002C02D064B296
:10259000012C07D1DFF81C0100684FF47A71484321
:1025A000814606E0DFF8100100684FF47A71484375
:1025B00081462801B9FBF0F00600B6B2B6F5005F1F
:1025C00002DB41F6FF700600B9FBF5F0B6B2B0EBE6
:1025D00006100700BFB2202F03DBDC213748FFF7CE
:1025E0005AFE334864B250F82400007810F0E0003E
:1025F0008046B6B2300A10F01F0050EA08002C499D
:1026000064B251F824100870294864B250F82400CC
:102610004670274864B250F82400807A10F0E00039
:10262000804617F01F0050EA0800214964B251F8B3
:10263000241088721E4864B250F82400007C50F0C8
:1026400088001B4964B251F824100874184864B219
:1026500050F82400C07850F00C00154964B251F8CD
:102660002410C870BDE8F183114A40B252F820200E
:1026700012791206F8D50E4A40B252F82020D171D4
:10268000704770B504000D0016003000461E00288B
:1026900008D095F9001049B2200040B2FFF7E4FFDE
:1026A0006D1CF2E770BD00003480044028800440B7
:1026B000940BFF1F9410FF1F9C10FF1F1466000057
:1026C00010B5040064B2082C0DDA00220021224863
:1026D00064B2205CFFF7ACFC03211F4864B2205CAD
:1026E000FFF75CFD14E0082004002000441E40B207
:1026F00000280DD000220021174864B2205CFFF7AB
:1027000097FC0321144864B2205CFFF747FDECE717
:1027100010BD10B50400104864B2205CFFF7FBFC4C
:10272000002801D1002000E0012010BD10B50400F8
:10273000200040B2FFF7EDFF00280AD10A20FFF782
:102740007EFD200040B2FFF7E4FF002801D1002009
:1027500000E0012010BD0000AC0BFF1F2DE9F04F81
:10276000A1B08246002017461D4602910B900DF144
:10277000440B6FF000490AE017F8011B0298D0479C
:102780000290002800F0A3820B98401C0B90387830
:1027900008B90B989DE22528EED1002005900690FF
:1027A0000790089009900A9001E040F0010017F8A6
:1027B000011F2029F9D023290DD02B2904D02D2940
:1027C00006D030290AD00CE040F0020080B2EEE7DB
:1027D00040F00400FAE740F00800F7E740F010008E
:1027E000F4E72A290ED12968296051F8042B2960C1
:1027F0000D92002A04D5514240F004000D9180B2A0
:102800007F1C11E000210D9109E00D99494505D08B
:1028100001EB810302EB430130390D917F1C3A78C3
:10282000A2F130010A29F0D339782E2903D04FF0D4
:10283000FF310C911DE017F8011F2A2907D12968E3
:1028400029607F1C51F8042B29600C9211E00021B3
:102850000C9109E00C99494505D001EB810302EB8D
:10286000430130390C917F1C3A78A2F130010A29DA
:10287000F0D3ADF838000FF6B820397800F076FDC7
:1028800008B117F8010B8DF83A009DF83A00682856
:1028900002BF39786829622005D06C2804BF3878D7
:1028A0006C2803D171208DF83A007F1C11A8049088
:1028B00017F8014BB4F1250024D02038022840F24B
:1028C000C680133800F0EC800B3800F05081401EB9
:1028D00000F02581401E022840F2B980001F00F060
:1028E0001E81401F00F08480401E00F0D980401EF1
:1028F00029D0C01E0CD0801E00F0D280C01E00F077
:10290000CF803EE10120059025208DF8440044E170
:102910002868286050F8044B28600394DDF8308064
:10292000B8F1000F04D5204600F02CFD804607E0EA
:1029300042460021204600F041FD08B1A0EB04080A
:10294000CDF8188029E1296829604FF03C0851F83A
:10295000040B29600021CDE9000111A80390DDE9F5
:102960000001049C11B908B90C9ACAB10206120FF1
:10297000A0EB02123032A8F1010ED2B2F0463A2A90
:10298000A8BF273200090EF8042040EA01700909A7
:1029900008BF002804D0039A08EB04039A42E5D349
:1029A00008EB04000390C8F13C010C9806918142A9
:1029B00009DA401A08904FF6EF71BDF83800084068
:1029C000ADF83800E9E0002840F1E7809DF83800D4
:1029D00000F01400102840F0E0800D98059A801A4D
:1029E000089A801A401A0128C0F2D7800890D4E0D3
:1029F0009DF83A0062281AD0682806D06A280CD0C0
:102A00006C281CD0712808D019E02868286050F87C
:102A1000041B28600B980880BFE02868286050F8E5
:102A2000042B28600B98C117C2E90001B5E02868A3
:102A3000286050F8041B28600B980870ADE02868E7
:102A4000286050F8041B28600B980860A5E02868EF
:102A5000C01D20F007022A60D2E9000108322A6076
:102A6000CDE90001002903D5012005902D200CE0BF
:102A7000BDF83800810703D5012005902B2004E024
:102A8000C00704D50120059020208DF84400059949
:102A900011A808180390214600A800F0D7F97CE09F
:102AA0009DF83A206C2A0DD0712A18BF6A2A09D1E4
:102AB0002868C01D20F007032B60D3E9000108330C
:102AC0002B6005E02968296051F8040B296000217A
:102AD000CDE90001682A08BF80B207D0622A08BF8A
:102AE000C0B203D0742A18BF7A2A02D10021CDE9DE
:102AF00000019DF83800000730D5DDE9000100290C
:102B000008BF00282AD044F02000782826D13020A1
:102B10008DF844008BF80140022005901EE0294604
:102B20009DF83A0000F0D8F8CDE90001002904DA58
:102B30000598411C05912D210EE0BDF83800810754
:102B400004D50598411C05912B2105E0C00705D54A
:102B50000598411C0591202100F80B10059911A83A
:102B600008180390214600A800F0EDF815E00120B8
:102B700005902868286050F8041B28608DF84410E0
:102B80000BE00120059025208DF84400002C04D096
:102B90000598411C059100F80B400D980599401AC5
:102BA0000899401A0699401A0999401A0799401A3B
:102BB0000A99A0EB01089DF8380040070FD42020A7
:102BC0008DF84000002408E0012310AA00A9504617
:102BD00000F097FB00287AD1641C4445F4DB059C87
:102BE00011AE0AE016F8011B0298D04702900028A7
:102BF0006DD00B98401C0B90641E002CF2D130203D
:102C00008DF840000026089C08E0012310AA00A9C6
:102C1000504600F076FB002859D1761CA642F4DB22
:102C2000069C039E0AE016F8011B0298D04702900A
:102C300000284CD00B98401C0B90641E002CF2D145
:102C400030208DF840000026099C07E0012310AADF
:102C500000A9504600F055FBC8BB761CA642F5DB28
:102C600003980699079C0E1809E016F8011B0298B4
:102C7000D047029058B30B98401C0B90641E002C58
:102C8000F3D130208DF8400000260A9C07E0012394
:102C900010AA00A9504600F034FBC0B9761CA64229
:102CA000F5DB9DF8380040077FF571AD20208DF8E9
:102CB0004000002400E0641C4445BFF668AD0123D9
:102CC00010AA00A9504600F01CFB0028F3D04FF0DA
:102CD000FF3021B0BDE8F08F622826D068281DD0D3
:102CE0006A2808D06C2827D0712804D0742823D0F3
:102CF0007A280CD020E00868C01D20F0070008608A
:102D0000D0E90023083008601946104670470A6869
:102D10000A6052F8040B0A60002170470A680A60D2
:102D200052F8040B0A6000B20BE00A680A6052F81D
:102D3000040B0A6040B204E00A680A6052F8040B0F
:102D40000A60C11770472DE9FA4E05460A462F69F9
:102D50006F2A08BF082405D041F02000782814BF4E
:102D60000A241024D5E900013C2681468A46642ABB
:102D700018BF692A05D1002903DAD9F100096AEBE5
:102D80004A0ABAF1000F08BFB9F1000F0CD1286B45
:102D900050B9082C36D195F83800000732D53020CC
:102DA0003B2687F83B002DE0E31748465146224674
:102DB00000F030FBA4FB0023A9EB02023032A6F1A5
:102DC000010BD2B25E463A2A03DB9DF80030513B3C
:102DD0009A180BF8072081465FEA010A08BFB9F18B
:102DE000000F03D0E868F1198842DDD3082C09D11F
:102DF00095F83800000705D5F05D302802D0761E22
:102E00003020F055C6F13C00A861F119E960296B4A
:102E1000884208DA081A28624FF6EF71288F0840B6
:102E20002887BDE8F38E00290ED595F8381001F0FB
:102E30001401102908D1696B6A69891A2A6A891AEA
:102E4000081A0128A8BF2862BDE8F38E2DE9F34FC8
:102E50008BB0D0E90089006B01AF002848BF062085
:102E600005D404BF41F02000672802D101200B994E
:102E7000086340F2FF720B984168C1F30A50904218
:102E800020D1080302BF0B98006800280AD10B99D3
:102E9000032088619DF8300061381A2858D30FF25A
:102EA000A44109E00B99032088619DF83000613846
:102EB0001A284AD30FF284410B98C068032200F00D
:102EC00021FB00E1012807DA0B9800F056FB0128EE
:102ED00002DB00230026EDE00B9A526840F2FE313F
:102EE00061F31E520B994A6040F2FE31461A404689
:102EF00049460022002300F061FB38BF89F00049F9
:102F000036B247F2975070434949DFF828B190FB39
:102F1000F1F636B2C6F107079246012F1BDBF80720
:102F200007D552465B464046494600F05FFB804667
:102F300089467F105046594652465B4600F056FB84
:102F400082468B46002FEAD126E00FF2EC31B3E740
:102F50000FF2EC31B0E77F420024374D12E0F80762
:102F600007D552465B462046294600F03FFB044603
:102F70000D467F105046594652465B4600F036FBE0
:102F800082468B46002FEAD14046494622462B46D0
:102F900000F0FEFB804689469DF8300040F0200599
:102FA000662D0CBF06F10A0006200B99096B471825
:102FB000142FA8BF132730208DF804000DF105044D
:102FC000DFF878B0012F3BDB4046494600F004FDB6
:102FD000014604F1080204234FF00A0CB1FBFCFC8B
:102FE0000CEB8C04A1EB4401303102F8011D0A21E5
:102FF000BCFBF1FE0EEB8E04ACEB440430347146A6
:1030000002F8014D5B1EE7D1083F02F10804012FD1
:10301000D8DB00F0F7FC02460B464046494600F07C
:10302000FFFC00225B4600F0E1FA80468946CBE7D0
:10303000A0860100000024400000F03F84D79741A3
:103040000DF10500201A0DF1050702E0401E761E65
:103050007F1C39783029F9D0662D02D136B2711C27
:1030600003E0652D0CBF012100210B9A126B8B1818
:103070001BB29842B8BF03461BB219001AD4814252
:1030800004DAC85D3528A8BF392000DA3020CA1913
:10309000521E00E05B1E12F80159491E8542F9D00C
:1030A000392802D1C85D401CC855002902D57F1EB1
:1030B0005B1C761C36B29DF830100B9800961BB244
:1030C0003A4600F003F80DB0BDE8F08F2DE9F04767
:1030D00086B006468A4690461D4600F07EFD406A50
:1030E000376B90F80090012D02DA01250FF2582875
:1030F0004AF02000BDF93840662808BF641C13D090
:10310000672840F0888014F1040F73DBBC4271DA49
:1031100096F83800641C000702D4BD42B8BF2F46A1
:1031200024B23F1B48BF0027F068B16924B2012CCC
:1031300021DA30234A1C0B54012F03DA96F8381099
:10314000090702D502F80090521CB261E742B8BFED
:103150007C4224B26142E7197162AF42B8BF3D467A
:103160002DB2F5612A46B3694146181800F0CAF934
:10317000781BB062AEE00818A54216DA2A4641462E
:1031800000F0C0F9B1696918B161601B7062012F6C
:1031900003DA96F83800000705D5F06801F80090CA
:1031A000F069401CF061B76294E02246414600F0AD
:1031B000A9F9B06920182D1B012F03DA96F83810F1
:1031C000090703D5F16800F80190401C2DB2B061E9
:1031D000AF42B8BF3D46F068B3692DB22A4604EB52
:1031E0000801181800F08EF9B0692818B061781B32
:1031F00070626FE0BD4204DA96F83810090758BFD4
:103200002F467F1E48BF0027BAF1670F0CBF4FF053
:10321000650A4FF0450AB169F06818F8013B0B5494
:103220004A1C012F05DA96F83810090758BFB26119
:1032300015D502F80090531CB361012F0FDB6D1EF2
:103240002DB2AF42B8BF3D462DB22A4641461818AE
:1032500000F058F9B0692818B061781B7062F06806
:10326000B16901EB0008200008F801AB03D42B2062
:1032700008F8010B03E02D2108F8011B644200252A
:1032800002AF08E00A2200A800F0C0FC019807F88D
:10329000010B6D1C009C21B20129F3DA022D06DA24
:1032A0004AF02000652804BF302008F8010B4DB912
:1032B000302008F8010B07E06D1E02A8285C3030B2
:1032C00008F8010B012DF7DAF068B1690818A8EBCE
:1032D0000000F06196F8380000F0140010280DD1BD
:1032E0007069B1690818716A0818F1690818B16A3B
:1032F0000818716B8842BCBF081A306206B0BDE87E
:10330000F087F8B504460D4616461F46002004E037
:10331000E86A401CE8627F1E002047B116F8011BD6
:10332000A868A047A8600028F2D14FF0FF30F2BD96
:10333000686A6C747A4C00006E616E004E414E00FB
:10334000696E6600494E4600300050F8041B61B1BA
:1033500050F8042BD30744BFA9F101039A180023A6
:1033600042F8043B091FFAD1EFE770470278C9B26F
:103370008A421AB11CBF10F8012FF9E718BF0020CC
:103380007047FF0000F10103810704D010F8011B12
:1033900089B18107FAD10268B2F10131914311F08C
:1033A000803F04BF50F8042FF6E710F8011B11B15D
:1033B00010F8011BFBE7C01A704701FEC9B2830772
:1033C00006D0521E22D310F8013B9942F7D11FE0DC
:1033D000083A13D302F1040241EA012141EA014112
:1033E00050F8043B121F21BF4B40A3F1013C2CEAD3
:1033F000030C1CF0803FF3D0C9B2001F083210F854
:10340000013B521E28BF91EA030FF8D818BF0120D4
:10341000401E70471B4213D1094236D12AB184465F
:10342000B0FBF2F002FB10C2704700F0F7BBFCD318
:103430000022002370470B0002000021002070478B
:10344000904271EB030CF6D370B5B1FA81F4B3FA84
:1034500083F52C1BA340C4F1200532FA05F6334353
:10346000A2405FF00046E64002E05B085FEA3202FD
:10347000841A71EB030524BF204629467641F4D314
:1034800002000B003000002170BD012ACFD970B5B9
:10349000140C20D0B1FA81F4B2FA82F5C4F1200400
:1034A0006419B4F12006D6D3B2405FF00044F44072
:1034B000002502E052085FEA3303C61A71EB020EE0
:1034C00024BF3046714664416D41F3D302000B00C6
:1034D0002000290070BD0C46B1FBF2F102FB114542
:1034E0002D0445EA1045B5FBF2F402FB145580B2F9
:1034F00040EA0545B5FBF2F002FB105240EA0440F9
:1035000070BDFE0162B38B0708D0521E11F8013B5B
:1035100000F8013B00F024808B07F6D1830740F0D0
:10352000208000BF103A07D330B4B1E83810103A09
:10353000A0E83810F9D230BC530724BFB1E8081016
:10354000A0E8081044BF51F8043B40F8043BD20700
:1035500024BF31F8022B20F8022B44BF0B780370F4
:103560007047083A07D3B1E80810083A40F8043B1E
:1035700040F804CBF7D25307E4E730B4436803F0D4
:10358000004201211B031B0B436004BF0368002B97
:1035900008D10DE00368DD0F45EA440444605B0098
:1035A0000360491E4468E302F4D523031B0B436008
:1035B00043681A434260084630BC70474FF4001C11
:1035C0001CEB410F94BF1CEB430F09E041EA030CD5
:1035D00050EA4C0C52EA0C0C03D2994208BF9042BC
:1035E000704714BF8B42824270470000B0B581EA39
:1035F000030C0CF0004C40F2FF7515EA11541DBF8E
:1036000015EA1357AC42AF4239E0E41923EA4553B7
:1036100043F48013C90241F0004141EA505EC70201
:103620001100A7FB020200284FF00000EEFB012072
:103630004FF00001E3FB072118BF42F001024018E0
:1036400000214941E3FB0E01A4F580640F0302D27F
:1036500052004041494154F101046CDD470872F1C8
:10366000004250F1000051EB0451A1F580115CBF04
:1036700041EA0C01B0BD4CEA05510020B0BD05EA9D
:103680001357AC4214BFAF4241E050EA410E1CBF99
:1036900052EA430E02E061460020B0BD24423C44A1
:1036A0001BD15FEA070EF6D0090302BF01460020D6
:1036B000AEF1140EB1FA81F7AEEB070401FA07FE82
:1036C0000C37C7F1200100FA07F7C8404EEA000E98
:1036D00023EA455343F48013A2E733F00043B3FADF
:1036E00083F704BFB2FA82FE77440B3FE41BB7F1C5
:1036F000200E2FBF02FA0EF3BB40C7F1200E22FAB4
:103700000EFE38BF43EA0E03BA40641C82E750EA5B
:10371000410E14BF52EA430E6FF000014FF4001740
:1037200017EB430F8ABF194617EB410FB5E74CEA79
:1037300005510020B0BDD4F10104B4F120070FDA27
:10374000C4F12007520828BF42F0010210FA07F521
:1037500001FA07F7E1BF2A43E0403843E1400FE0B8
:10376000352C98DCC7F1200452EA400220FA07F217
:1037700018BF42F0010231FA07F0A1400A430021CC
:1037800072F1004250F1000051EB0C01B0BD00009D
:10379000F0B540F2FF7581EA030C0CF0004C15EA1D
:1037A00011541DBF15EA1357AC42AF42E5E0BC41CE
:1037B000C1F31301C3F31303801A994143F4801337
:1037C00004D2641E4000494180185941C90241EAAF
:1037D0005051B1FBF3F603FB1611A2FB0675D7EBB4
:1037E000C020A94102D2761E80185941C90241EA7F
:1037F0005051B1FBF3FE03FB1E11A2FB0E75D7EB7C
:10380000C020A94103D2AEF1010E801859418902AE
:1038100041EA9051760546EA8E2EB1FBF3F603FBA2
:103820001611A2FB0675D7EB8020A94102D2761EA5
:1038300080185941C90241EA50514EEA060EB1FBC7
:10384000F3F603FB1611A2FB0675D7EBC020A941C6
:1038500002D2761E80185941C90241EA5051B1FB8B
:10386000F3F703FB1711A2FB0735D3EBC020A941E7
:1038700067F100070CBF004247F0010766F3D52748
:103880004FEA1E31B80814F5806412DDBD0775F1EA
:10389000004250EB0E5051EB045111F5801F5CBFFC
:1038A00041EA0C01F0BD4CF07F6141F0E0410020A5
:1038B000F0BDBD076D0840EA0E5041F48011D4F10F
:1038C0000104B4F120060ADAC4F120060200E04047
:1038D00001FA06F3E1401843B24015430EE0342CE0
:1038E00013DCC6F1200445EA40056D0820FA06F213
:1038F000154321FA06F0A1400D43002175F1004265
:1039000050F1000051EB0C01F0BD00205FEA0C010A
:10391000F0BDCFB992185B41B3FA83F704BFB2FA96
:1039200082F6BF190B3FB7F120062FBF02FA06F34C
:10393000BB40C7F1200622FA06F638BF3343BA402F
:103940001CB1E419641E33E77F4231F00041B1FA43
:1039500081F404BFB0FA80F6A4190B3CB4F1200640
:103960002FBF00FA06F1A140C4F1200620FA06F6A6
:1039700038BF3143A0403C1B1AE7AC421ABF05EAEE
:103980001357AF4212E050EA41061CBF52EA430609
:10399000BFE750EA4107304661461CBF41EA055186
:1039A000F0BD52EA430C08BFC143F0BD00204FF404
:1039B000001616EB410F98BF16EB430F08BF16EB2E
:1039C000410F24BFC14305E016EB430F0CBF614616
:1039D0004CEA0551F0BD0000400D40EAC12049000D
:1039E00080F00D8040F00040490DA1F58061491C38
:1039F00005D4D1F11F0154BFC840C01770474FF024
:103A000000007047010000BF09D0B0FA80F1884083
:103A1000C91CC1F58461090501EBD021400570473F
:103A200070B44FF0004591EA030F44BF6B4000F0C3
:103A3000F7B800BF841A71EB030604D26E40001B76
:103A4000B141121973414FF4001C1CEB410F34BFFC
:103A50007CEB430684E00C0DA4EB1356362E7DDC84
:103A6000012E43DC45EAC32343EA525312BFD2027C
:103A700092025B08240545EAC12141EA5051D2EB8C
:103A8000C020994125D407D1B0FA80F610FA06F18A
:103A900064D00020203608E0B1FA81F6B140C6F1CA
:103AA000200220FA02F21143B0404FEAF474B4EB62
:103AB000465434F001064FEA74040AD8D6F50016CD
:103AC000760D04F00044F04061FA06F25040F140F7
:103AD0004840C00A40EA415021F0004128BF5FEA57
:103AE000500550F1000044EBD12137E045EAC323F3
:103AF000DB0A45EAC121C90AB6F120050EDD42EA1A
:103B00000242120CC5F1200603FA06F6EB4042EA27
:103B100006056D42984161F100010DE062FA06F57B
:103B2000F240554063FA06FC82EA0C02F3405A4028
:103B30006D42904161EB030111F4801F05D1641EB9
:103B4000620502D06D004041494121F480114308D3
:103B500075F1004350F1000041EB045170BC704717
:103B60001CEB410F15D223F0004352EA43060BD061
:103B70004FEA4C0CBCEB410F04D80C0D661E342EE2
:103B8000B7DDEBE7801A994150EA410608BF0021F2
:103B9000E4E708BF1CEB430F28BF6FF00001DDE72F
:103BA00080B5134800F0A6F80FF2480101604160AB
:103BB0008160C1600161416181610FF23C0242623A
:103BC0008162C162016341630FF2300282630FF2CE
:103BD0003402C2630164416401BD10B5044800F0C1
:103BE00089F80446206808B9FFF7DAFF204610BDBF
:103BF000F810FF1F000000002E00000066616C73CB
:103C000065000000747275650000000091FBF2F31E
:103C100003FB1211C0E9003170470000704700003B
:103C2000841A71EB030603D2001BB14112197341D0
:103C30004FF4001C1CEB410F34BF7CEB430443E00A
:103C40000C0DA4EB1356352E50DC45EAC323DB0ADA
:103C500045EAC121C912B6F120050DDD63FA05F66A
:103C6000EB4086EA0305124218BF45F00105C01873
:103C700051F100010CD213E062FA06F5F240554012
:103C8000F3415A40B340F3405A408018594107D39A
:103C900049085FEA30005FEA350528BF45F00105B5
:103CA00001F58011420875F1004250F1000041EB2E
:103CB000045170BC4FF4001C1CEB410F38BF70471F
:103CC0000020090D090570471CEB410F10D252EA84
:103CD00043060BD0BCEB410F05D80C0DAB43661E61
:103CE000342EB5DD02E0AB438018594170BC7047FB
:103CF00070BC70477047000000000000000000002A
:103D000000000000000000000000000000000000B3
:103D10000000000000004E6F6E4D61736B61626CBD
:103D20006500000000486172644661756C740000B3
:103D3000000000004D656D4D616E6167656D656EDB
:103D40007400004275734661756C740000000000D9
:103D5000000055736167654661756C740000000072
:103D60000000000000000000000000000000000053
:103D70000000000000000000000000000000000043
:103D80000000000000000000000000000000000033
:103D90000000000000000000000000000053564337
:103DA000616C6C000000000000000000446562755A
:103DB000674D6F6E69746F720000000000000000B4
:103DC0000000000000000000000050656E645356C3
:103DD0000000000000000000005379735469636B19
:103DE0000000000000000000444D413000000000D1
:103DF00000000000000000444D41310000000000C0
:103E0000000000000000444D4132000000000000AE
:103E10000000000000444D4133000000000000009D
:103E200000000000444D413400000000000000008C
:103E3000000000444D41350000000000000000007B
:103E40000000444D4136000000000000000000006A
:103E500000444D4137000000000000000000000059
:103E6000444D413800000000000000000000004404
:103E70004D41390000000000000000000000444DEA
:103E800041313000000000000000000000444D41BE
:103E9000313100000000000000000000444D4131BD
:103EA0003200000000000000000000444D413133AA
:103EB00000000000000000000000444D41313400CB
:103EC000000000000000000000444D4131350000BA
:103ED0000000000000000000444D415F4572726F19
:103EE000720000000000004D434D00000000000083
:103EF0000000000000004654464C00000000000096
:103F00000000000000526561645F436F6C6C697370
:103F1000696F6E004C56445F4C565700000000001D
:103F20000000004C4C5700000000000000000000A2
:103F300000005761746368646F6700000000000050
:103F400000524E470000000000000000000000008A
:103F5000493243300000000000000000000000492A
:103F60003243310000000000000000000000535008
:103F700049300000000000000000000000535049DC
:103F800031000000000000000000000053504932E2
:103F9000000000000000000000000043414E305FC0
:103FA0004F525F4D425F6275660043414E305F4243
:103FB00075735F4F666600000043414E305F457287
:103FC000726F72000000000043414E305F54785F12
:103FD0005761726E696E6743414E305F52785F572A
:103FE00061726E696E6743414E305F57616B655F0A
:103FF0005570000000526573657276656435310056
:104000000000000052657365727665643532000009
:1040100000000043414E315F4F525F4D425F627579
:10402000660043414E315F4275735F4F6666000024
:104030000043414E315F4572726F72000000000014
:1040400043414E315F54785F5761726E696E6743CA
:10405000414E315F52785F5761726E696E674341BE
:104060004E315F57616B655F55700000005265739C
:10407000657276656435390000000000526573652D
:1040800072766564363000000000005541525430AD
:104090005F52585F54580000000055415254305F41
:1040A00045525200000000000055415254315F5209
:1040B000585F54580000000055415254315F45523A
:1040C0005200000000000055415254325F52585FC8
:1040D00054580000000055415254325F455252007E
:1040E000000000000055415254335F52585F54584D
:1040F0000000000055415254335F45525200000009
:1041000000000055415254345F52585F545800002B
:10411000000055415254345F4552520000000000E7
:104120000055415254355F52585F5458000000000A
:1041300055415254355F4552520000000000004185
:104140004443300000000000000000000000414433
:1041500043310000000000000000000000434D500B
:10416000300000000000000000000000434D50310E
:104170000000000000000000000000434D5032002D
:104180000000000000000000000046544D30000018
:1041900000000000000000000046544D3100000007
:1041A000000000000000000046544D3200000000F6
:1041B00000000000000000434D540000000000001B
:1041C0000000000000005254430000000000000006
:1041D0000000000000526573657276656438330034
:1041E00000000000504954300000000000000000B2
:1041F00000000050495431000000000000000000A1
:10420000000050495432000000000000000000008F
:10421000005049543300000000000000000000007E
:104220005044423000000000000000000000005533
:104230005342300000000000000000000000555311
:1042400042444344000000000000000000454E4589
:10425000545F313538385F54696D6572454E455449
:104260005F5472616E736D69740000454E45545F12
:1042700052656365697665000000454E45545F45AB
:1042800072726F720000000000493253300000006B
:1042900000000000000000005344484300000000FC
:1042A0000000000000000044414330000000000016
:1042B0000000000000004441433100000000000005
:1042C00000000000005453493000000000000000CE
:1042D000000000004D434700000000000000000007
:1042E0000000004C5054696D657200000000000031
:1042F00000005265736572766564313032000000EB
:1043000000504F5254410000000000000000000027
:10431000504F5254420000000000000000000050C6
:104320004F52544300000000000000000000504FB6
:1043300052544400000000000000000000504F52A2
:104340005445000000000000000000005265736545
:104350007276656431303800000000526573657212
:1043600076656431303900000000526573657276FD
:104370006564313130000000005265736572766506
:1043800064313131000000005265736572766564F6
:104390003131320000000052657365727665643118
:1043A0003133000000005265736572766564313107
:1043B00034000000005265736572766564313135F2
:1043C0000000000052657365727665643131360015
:1043D0000000005265736572766564313137000004
:1043E00000005265736572766564313138000000F3
:1043F00000526573657276656431313900000000E2
:10440000008003400090034000800B4000F00F400C
:1044100040F00F4080F00F40C0F00F4000F10F401F
:10442000F0000A1D30001800320018016000181852
:104430006400181A6E00181F780013187D00131AF4
:104440008200131C8C000E1296000E15A0000E1890
:10445000AA000E1BB4000E1EC8000C1CE1000B1EAF
:10446000FA000A1F000109080090044000A004405F
:1044700000B0044000C0044000D0044000A006404A
:1044800000B0064000C0064000D0064000A00E402C
:1044900000B00E401D281A1867294E4F800080007A
:1044A00034353637010000000DC1110009030CD06E
:1044B0001240173F185019031A783200A00A63E01F
:1044C000ACFF650C6600670029142C1E2A007E0CC8
:1044D0007F16802A814E8261836F847B8586868EDB
:1044E000879788A489AF8AC58BD78CE88D204A002E
:1044F000491347084B144C17460522992303A60479
:104500009B009C48AB069E119F02000031000000FA
:1045100002040101A410FF1FF410FF1FA410FF1FCD
:10452000A410FF1FA410FF1F650CFF1F4C0CFF1FE2
:10453000000000000000000000000000000000007B
:10454000000000000000000000000000000000006B
:10455000000000000000000000000000000000005B
:104560000000183C3C3C1818180018180000000007
:1045700000666666240000000000000000000000E5
:104580000000006C6CFE6C6C6CFE6C6C000000003B
:1045900018187CC6C2C07C0686C67C1818000000AD
:1045A00000000000C2C60C183060C6860000000083
:1045B0000000386C6C3876DCCCCCCC760000000087
:1045C00000303030600000000000000000000000FB
:1045D00000000C18303030303030180C0000000073
:1045E000000030180C0C0C0C0C0C183000000000F3
:1045F0000000000000663CFF3C6600000000000078
:10460000000000000018187E1818000000000000CC
:104610000000000000000000001818183000000022
:1046200000000000000000FE00000000000000008C
:10463000000000000000000000001818000000004A
:104640000000000002060C183060C080000000006E
:1046500000007CC6C6CED6D6E6C6C67C00000000EA
:1046600000001838781818181818187E0000000074
:1046700000007CC6060C183060C0C6FE00000000BA
:1046800000007CC606063C060606C67C000000004C
:1046900000000C1C3C6CCCFE0C0C0C1E000000003E
:1046A0000000FEC0C0C0FC0E0606C67C0000000074
:1046B00000003860C0C0FCC6C6C6C67C0000000052
:1046C0000000FEC606060C18303030300000000036
:1046D00000007CC6C6C67CC6C6C6C67C00000000FC
:1046E00000007CC6C6C67E0606060C7800000000E8
:1046F000000000001818000000181800000000005A
:104700000000000018180000001818300000000019
:10471000000000060C18306030180C060000000085
:10472000000000000000FE0000FE0000000000008D
:104730000000006030180C060C183060000000000B
:1047400000007CC6C60C18181800181800000000DD
:104750000000007CC6C6DEDEDEDCC07C000000009F
:10476000000010386CC6C6FEC6C6C6C600000000F3
:104770000000FC6666667C66666666FC00000000FB
:1047800000003C66C2C0C0C0C0C2663C0000000061
:104790000000F86C6666666666666CF800000000ED
:1047A0000000FE6662687868606266FE00000000D5
:1047B0000000FE6662687868606060F000000000DB
:1047C00000003C66C2C0C0DEC6C6663A00000000FB
:1047D0000000C6C6C6C6FEC6C6C6C6C600000000E5
:1047E00000003C18181818181818183C0000000091
:1047F00000001E0C0C0C0C0CCCCCCC780000000083
:104800000000E6666C6C78786C6666E60000000076
:104810000000F06060606060606266FE00000000A2
:104820000000C6EEFEFED6C6C6C6C6C60000000024
:104830000000C6E6F6FEDECEC6C6C6C60000000014
:104840000000386CC6C6C6C6C6C66C38000000007C
:104850000000FC6666667C60606060F0000000003E
:1048600000007CC6C6C6C6C6C6D6DE7C0C0E0000DE
:104870000000FC6666667C6C666666E6000000000A
:1048800000007CC6C660380C06C6C67C000000006E
:1048900000007E7E5A1818181818183C00000000F6
:1048A0000000C6C6C6C6C6C6C6C6C67C0000000096
:1048B0000000C6C6C6C6C6C6C66C381000000000DA
:1048C0000000C6C6C6C6C6D6D6FE6C6C0000000088
:1048D0000000C6C66C6C38386C6CC6C600000000A0
:1048E0000000666666663C181818183C0000000058
:1048F0000000FEC6860C183060C2C6FE0000000034
:1049000000003C30303030303030303C00000000AF
:1049100000000080C0E070381C0E0602000000009D
:1049200000003C0C0C0C0C0C0C0C0C3C00000000AF
:1049300010386CC6000000000000000000000000FD
:1049400000000000000000000000000000FF000068
:1049500030301800000000000000000000000000DF
:104960000000000000780C7CCCCCCC76000000006D
:104970000000E06060786C66666666DC000000003F
:1049800000000000007CC6C0C0C0C67C0000000063
:1049900000001C0C0C3C6CCCCCCCCC760000000095
:1049A00000000000007CC6FEC0C0C67C0000000005
:1049B0000000386C6460F060606060F0000000002F
:1049C000000000000076CCCCCCCCCC7C0CCC7800A9
:1049D0000000E060606C7666666666E600000000D7
:1049E00000001818003818181818183C00000000AB
:1049F00000000606000E06060606060666663C0071
:104A00000000E06060666C78786C66E6000000008C
:104A100000003818181818181818183C0000000062
:104A20000000000000ECFED6D6D6D6D6000000006E
:104A30000000000000DC6666666666660000000036
:104A400000000000007CC6C6C6C6C67C0000000090
:104A50000000000000DC66666666667C6060F00050
:104A6000000000000076CCCCCCCCCC7C0C0C1E0022
:104A70000000000000DC7662606060F00000000072
:104A800000000000007CC660380CC67C00000000FE
:104A90000000103030FC30303030361C0000000098
:104AA0000000000000CCCCCCCCCCCC7600000000C8
:104AB000000000000066666666663C1800000000A4
:104AC0000000000000C6C6C6D6D6FE6C000000007E
:104AD0000000000000C66C3838386CC600000000CA
:104AE0000000000000C6C6C6C6C6C67E060CF8009A
:104AF0000000000000FECC183060C6FE0000000080
:104B000000000E18181870181818180E0000000071
:104B100000001818181800181818181800000000BD
:104B20000000701818180E181818187000000000EF
:104B3000000076DC00000000000000000000000023
:104B40000000000010386CC6C6C6FE000000000061
:104B500010B582B0DFF864040468FBF75DFCFDF774
:104B600052FAADF80000FDF74BFAADF802004FF431
:104B700078420099200000F001F813BDF2B504005E
:104B8000150000992000FDF737F9BDF80000BDF8C9
:104B90000210484307000120DFF8241408600020B9
:104BA000DFF8201408600020DFF81C1408602C20B7
:104BB000DFF8181408700020DFF8141408600120D2
:104BC000DFF80C1408600120DFF8FC1308600020F7
:104BD0000600BE4239D20120DFF8E413086001204C
:104BE000DFF8E01308600020DFF8DC130860ADB2E6
:104BF000280ADFF8D81308700020DFF8D413086003
:104C00000120DFF8CC1308600120DFF8BC13086036
:104C10000120DFF8AC1308600120DFF8A81308605A
:104C20000020DFF8A4130860DFF8A003057000205F
:104C3000DFF89C1308600120DFF89413086001205E
:104C4000DFF884130860761CC3E7F1BD2DE9F14756
:104C500081B00C0015001E00DFF87803D0F800A02A
:104C6000FDF7D1F90838BDF80410884206DBFDF7DE
:104C7000C7F91038BDF80610884200DAB3E0514693
:104C80000198FDF7B9F80120DFF83413086000201F
:104C9000DFF8301308600020DFF82C1308602C20A8
:104CA000DFF8281308700020DFF8241308600120C3
:104CB000DFF81C1308600120DFF80C1308600020E7
:104CC00081465FFA89F9B9F1100F80F28C80DFF824
:104CD0000803E4B2210151FA89F10818B0F5007017
:104CE00000780700002080465FFA88F8B8F1080FC6
:104CF00076DA380638D50120DFF8C41208600120C2
:104D0000DFF8C01208600020DFF8BC120860ADB206
:104D1000280ADFF8B81208700020DFF8B412086023
:104D20000120DFF8AC1208600120DFF89C12086057
:104D30000120DFF88C1208600120DFF8881208607B
:104D40000020DFF884120860DFF880020570002080
:104D5000DFF87C1208600120DFF87412086001207F
:104D6000DFF86412086037E00120DFF854120860B1
:104D70000120DFF8501208600020DFF84C120860B4
:104D8000B6B2300ADFF8441208700020DFF8401293
:104D900008600120DFF8381208600120DFF82812CF
:104DA00008600120DFF8181208600120DFF81412F3
:104DB00008600020DFF810120860DFF810020670AB
:104DC0000020DFF80C1208600120DFF804120860F0
:104DD0000120DFF8F41108607F0018F1010883E773
:104DE00019F101096DE7BDE8F38771B581B00C00D9
:104DF00015001E00207800282AD0FDF704F9083895
:104E0000BDF80410884207DA0020ADF80400BDF8B0
:104E100006001030ADF80600FDF7F2F81038BDF8C6
:104E20000610884205DA0020ADF806000020ADF833
:104E3000040033009BB22A0092B221780198FFF758
:104E400005FFBDF804000830ADF80400641CD1E78C
:104E500073BD2DE9FB4F04009246D3460199200013
:104E6000FCF7CAFF01205649086000205549086038
:104E70000020554908602C205449087000205449EE
:104E8000086001205249086001204F490860002055
:104E90008046BDF806001FFA88F8804580F08B80B8
:104EA0001FFA88F8BDF80A0000FB08F0BDF80610EC
:104EB00090FBF1F0ADF80000BDF80000BDF808105F
:104EC0004843060000200700BDF80400BFB2874237
:104ED0006ED2BFB2BDF8080000FB07F0BDF80410A9
:104EE00090FBF1F0814616FA89F00500E80810F809
:104EF0000B00012115F00702D2F107029140084290
:104F00002AD101202E49086001202E490860002086
:104F10002D490860FF202D49087000202C490860A9
:104F200001202B49086001202749086001202449FD
:104F30000860012023490860002023490860FF2001
:104F40002249087000202249086001202049086099
:104F500001201D49086029E001201949086001204D
:104F60001849086000201849086000201749087097
:104F700000201749086001201549086001201249E6
:104F8000086001200E49086001200E4908600020D9
:104F90000D49086000200D49087000200C49086088
:104FA00001200B4908600120074908607F1C8BE73E
:104FB00018F101086DE7BDE8F78F000040690000B7
:104FC0007000FE436C00FE434C00FE4340F00F4077
:104FD0006400FE434469000050450000DFF800F023
:104FE000E10DFF1FDFF8A81340B231F8201040B2E6
:104FF0000128C0F2738140B2112880F26F81002233
:10500000DFF890331A7089B25B2904DA0022DFF8E6
:1050100084335A7080E089B2B52904DA0122DFF8BE
:1050200074335A7078E089B2B1F5877F04DC0222CC
:10503000DFF860335A706FE089B2B1F5B47F04DCF9
:105040000322DFF850335A7066E089B2B1F5E17F90
:1050500004DC0422DFF83C335A705DE089B2B1F51C
:10506000077F04DC0522DFF82C335A7054E089B244
:1050700040F27722914204DA0622DFF818335A70A0
:105080004AE089B2B1F5347F04DC0722DFF804334B
:105090005A7041E089B240F22B32914204DA082280
:1050A000DFF8F0325A7037E089B2B1F5617F04DC85
:1050B0000922DFF8E0325A702EE089B240F2DF3286
:1050C000914203DA0A22B34B5A7025E089B2B1F556
:1050D000876F03DC0B22AF4B5A701DE089B240F2A0
:1050E0009342914203DA0C22AA4B5A7014E089B21F
:1050F00040F2ED42914203DA0D22A64B5A700BE0CA
:1051000089B240F24752914203DA0E22A14B5A7003
:1051100002E00F229F4B5A7089B21A2903DA00224B
:105120009C4B9A7069E089B2332903DA0122994BCA
:105130009A7062E089B24C2903DA0222954B9A7088
:105140005BE089B2652903DA0322924B9A7054E03E
:1051500089B27E2903DA04228E4B9A704DE089B21F
:10516000972903DA05228B4B9A7046E089B2B02961
:1051700003DA0622874B9A703FE089B2C92903DA25
:105180000722844B9A7038E089B2E22903DA0822B8
:10519000804B9A7031E089B2FB2903DA09227D4BFA
:1051A0009A702AE089B2B1F58A7F03DA0A22794B34
:1051B0009A7022E089B2B1F5967F03DC0B22754B21
:1051C0009A701AE089B2B1F5A37F03DA0C22714B11
:1051D0009A7012E089B2B1F5AF7F03DC0D226D4BFE
:1051E0009A700AE089B2B1F5BC7F03DA0E22694BEE
:1051F0009A7002E00F22674B9A7089B21A2903DA7B
:105200000022644BDA7069E089B2332903DA0122A3
:10521000604BDA7062E089B24C2903DA02225D4BFE
:10522000DA705BE089B2652903DA0322594BDA7040
:1052300054E089B27E2903DA0422564BDA704DE03D
:1052400089B2972903DA0522524BDA7046E089B217
:10525000B02903DA06224F4BDA703FE089B2C92940
:1052600003DA07224B4BDA7038E089B2E22903DA1D
:105270000822484BDA7031E089B2FB2903DA0922AF
:10528000444BDA702AE089B2B1F58A7F03DA0A2248
:10529000404BDA7022E089B2B1F5967F03DC0B2235
:1052A0003C4BDA701AE089B2B1F5A37F03DA0C2225
:1052B000384BDA7012E089B2B1F5AF7F03DC0D2212
:1052C000344BDA700AE089B2B1F5BC7F03DA0E2202
:1052D000304BDA7002E00F222E4BDA70704710B5B7
:1052E0000400200040B2FFF77DFE2B48007810F04C
:1052F000FD00294908702848007850F01000264920
:105300000870B8202549087025480078C006FBD4ED
:1053100023480078C0F38100C0B20228F8D11D48AC
:10532000C3781C4882781B4841781A480078FFF7F8
:1053300055FE174864B210EB8400807810F01F000F
:1053400018490870124864B210EB8400C07810F05D
:105350001F0050F040001449087011480078800682
:10536000FBD50F4800784006FBD50C48007810F0BC
:105370003F000A4908700A480078C0F38100C0B2B3
:105380000328F8D1024864B230F82400C0B210BD3E
:10539000380BFF1F7C0BFF1F0140064000400640FA
:1053A00006400640044006400540064038B504006B
:1053B0000D0064B2002C03D0022C66D049D380E0EB
:1053C000DFF86403006850F08070DFF85C13086059
:1053D0006DB2002D0BD0022D15D00ED3042D1ED092
:1053E00017D3062D27D020D3072D2AD02FE04FF436
:1053F00080614120FCF7B0FE2AE04FF440710420A8
:10540000FCF7AAFE24E04FF440710520FCF7A4FE4F
:105410001EE04FF440710620FCF79EFE18E04FF4AA
:1054200040710720FCF798FE12E04FF48061652080
:10543000FCF792FE0CE04FF480616620FCF78CFED6
:1054400006E04FF480616720FCF786FE00E038E05C
:1054500037E0DFF8D402006850F00070DFF8C812BF
:1054600008606DB2002D02D0012D06D00BE04FF484
:1054700040710820FCF770FE06E04FF440710D20EB
:10548000FCF76AFE00E01CE01BE0DFF8A002006809
:1054900050F08070DFF8941208606DB2002D02D0D9
:1054A000012D06D00BE04FF440710A20FCF754FEAA
:1054B00006E04FF440710B20FCF74EFE00E000E0E8
:1054C000FFE731BD2DE9F84F04000D0016001F0065
:1054D00064B2002C0ED064B2012C02D064B2022C53
:1054E00002D16DB2022D05DB40F28511DFF84002DA
:1054F000FCF7D1FE290049B2200040B2FFF756FF69
:10550000DFF8300200684FF47A71484380465FEA62
:105510001840B0FBF6F08146002082461FFA89F958
:1055200059FA0AF0012802DB1AF1010AF6E75FFADC
:105530008AFABAF1080F05DB4FF4D071DFF8F001F9
:10554000FCF7A9FE38FA0AF0B0FBF6F081461FFA24
:1055500089F9DFF8E40164B240F8249064B2002CC9
:1055600003D0022C17D00BD320E01FFA89F919F1D0
:10557000010000FB07F06421B0FBF1F0834615E069
:105580001FFA89F919F1010000FB07F06421B0FB53
:10559000F1F083460AE01FFA89F919F1010000FBD6
:1055A00007F06421B0FBF1F08346FFE7DFF88C01E0
:1055B00064B250F824006DB210EBC500DFF87C1126
:1055C00064B251F824106DB211EBC501C96831F015
:1055D0000401C160DFF8640164B250F824006DB2C8
:1055E00010EBC5002821C1605FFA8AFA1AF00700A3
:1055F00050F00800DFF8441164B251F8241008603C
:105600001FFA89F9DFF8340164B250F82400C0F8B9
:1056100008900020DFF8241164B251F82410C86407
:10562000DFF8180164B250F824006DB210EBC50029
:105630001FFA8BFBC0F810B00020DFF8001164B235
:1056400051F824104860BDE8F18F2DE9F0410400C5
:105650000D0016005FF0000864B2002C0ED064B29A
:10566000012C02D064B2022C02D16DB2022D05DBF6
:105670004FF4F371DFF8B800FCF70DFE64B2002CB4
:1056800003D0022C13D009D31AE0652E05D34FF4B2
:10569000F671DFF89C00FCF7FEFD11E0652E05D3E6
:1056A0004FF4F871DFF88800FCF7F5FD08E0652E8F
:1056B00005D34FF4FA71DFF87800FCF7ECFDFFE753
:1056C000DFF8740064B250F82400804664B2002C05
:1056D00003D0022C13D009D31AE018F1010000FB0B
:1056E00006F06421B0FBF1F0070011E018F10100B1
:1056F00000FB06F06421B0FBF1F0070008E018F1B0
:10570000010000FB06F06421B0FBF1F00700FFE7A9
:10571000DFF8280064B250F824006DB210EBC50029
:105720000761BDE8F08100003C8004403080044007
:10573000986600009C10FF1F8810FF1F180BFF1FAA
:1057400001B4BDF80000002805D0BDF80000401EDF
:10575000ADF80000F5E701B0704780B501220121E6
:105760004820FCF765FC012201214920FCF760FC80
:1057700023214820FCF712FD23214920FCF70EFDD0
:1057800001BD80B501207A4908600120794908608F
:105790004FF4C870FFF7D4FF0020774908607748BE
:1057A0000068002804D1012073490860002016E039
:1057B00001207149086000206D4908604FF4C870ED
:1057C000FFF7BEFF00206B4908606C4800680028A6
:1057D00004D0012068490860002000E0012002BDDB
:1057E00080B50020634908600020614908604FF4DB
:1057F000C870FFF7A5FF01205E4908604FF4C8702C
:10580000FFF79EFF01205A4908604FF4C870FFF768
:1058100097FF01BD80B50020564908604FF4C8705D
:10582000FFF78EFF0020524908604FF4C870FFF761
:1058300087FF01204F4908604FF4C870FFF780FFD1
:1058400000204C4908604FF4C870FFF779FF01BD94
:1058500080B50020474908604FF4C870FFF770FF1B
:105860000120434908604FF4C870FFF769FF012029
:10587000404908604FF4C870FFF762FF00203D49BF
:1058800008604FF4C870FFF75BFF01BD80B50020D2
:10589000384908600020384908604FF4C870FFF7A5
:1058A0004FFF0120334908604FF4C870FFF748FFED
:1058B00032480068002807D001202F4908600020E6
:1058C0002C490860002006E001202B4908600020D8
:1058D00028490860012002BD38B5050008242000D1
:1058E000441EC0B2002818D0280603D50120204944
:1058F000086002E000201E4908606D004FF4C87087
:10590000FFF71EFF01201B4908604FF4C870FFF726
:1059100017FF002017490860E1E731BD38B50824BA
:1059200000250020144908602000441EC0B2002851
:1059300015D06D0000200F4908604FF4C870FFF7C4
:10594000FFFE01200B4908604FF4C870FFF7F8FE16
:105950000A4800680028E7D055F00105E4E7012077
:1059600005490860002003490860EDB2280032BDF7
:105970002410FE432010FE43A412FE432412FE43D3
:1059800070B504000D0000262900C9B2200080B2C5
:1059900000F00AF8002805D1761CF6B2142EF3D1D7
:1059A000002000E0012070BD38B504000D00FFF7B5
:1059B000E8FE002801D1002019E04220FFF78CFF0B
:1059C000FFF764FF002803D1FFF70AFF00200EE075
:1059D0002000C0B2FFF780FFFFF758FF2800C0B2D9
:1059E000FFF77AFFFFF752FFFFF7FAFE012032BD03
:1059F000F8B504000D00160000273200D2B22900CD
:105A000089B2200000F00AF8002805D17F1CFFB2FF
:105A10001E2FF2D1002000E00120F2BD70B504007D
:105A20000D001600FFF7ADFE002801D1002037E081
:105A30004220FFF751FFFFF729FF002803D1FFF7AE
:105A4000CFFE00202CE03000C0B2FFF745FFFFF78B
:105A50001DFFFFF7C5FEFFF794FE002801D10020CF
:105A60001EE04320FFF738FFFFF710FF002803D1A7
:105A7000FFF7B6FE002013E0ADB2002D0DD0FFF70A
:105A80004DFF2070ADB2012D02D1FFF7E1FE01E024
:105A9000FFF7C0FE641C6D1EEEE7FFF7A1FE0120BC
:105AA00070BD00002DE9F84380460C005FEA9810B5
:105AB00010F00700C0B25FEA40194046103810F0FD
:105AC0003F00C0B2C000050015EB09000700E4B2BA
:105AD00017EBC400401E0600F6B2FFB2BE420DD363
:105AE000002200213800C0B2FCF7A2FA4FF4817105
:105AF0003800C0B2FCF730FB7F1CEDE7BDE8F18356
:105B00002DE9F84F04000D0016001F009DF92880B4
:105B1000DDF82C90DDF830A04FFA88F8B8F1000FCE
:105B200002D15FF0010B11E04FFA88F8B8F1010FD4
:105B300002D15FF0020B09E04FFA88F8B8F1020FCA
:105B400002D15FF0040B01E05FF0100B4FFA88F810
:105B5000B8F1000F05D16748854202D36648A842D4
:105B600021D24FFA88F8B8F1010F09D16148854276
:105B700006D36248A84203D315F00300032812D1CC
:105B80004FFA88F8B8F1020F09D15A48854206D376
:105B90005B48A84203D315F00300002803D061211D
:105BA0005848FCF778FBB9F5004F03D363215548FB
:105BB000FCF771FB5448006850F00200524908603D
:105BC0005248006850F0020050490860504864B2E2
:105BD00061010D5064B2600100F1804010F5104089
:105BE0000661002064B2610101F1804111F51041AC
:105BF00088805FFA8BFB64B2600100F1804010F591
:105C00001040A0F814B04FFA88F85FEA082010F4AA
:105C1000E0604FFA88F818F00701084364B26101A8
:105C200001F1804111F51041C88048464004400C04
:105C300064B2610101F1804111F51041C88248460A
:105C40004004400C64B2610101F1804111F5104142
:105C5000C8833048006830F080002E4908605FFA41
:105C60008BFB64B2600100F1804010F51040C0F879
:105C700008B0002064B2610101F1804111F51041CA
:105C8000C8605FEACA7002D4D9F1000000E00020C9
:105C900064B2610101F1804111F5104188614CF25B
:105CA0000A0064B2610101F1804111F5104188835D
:105CB000FFB27809313050F08000174964B2605467
:105CC00016493800C0B2FCF747FA5946C9B2280055
:105CD000FFF7E8FE124800680121A14088431049FF
:105CE0000860104800680121A14008430D49086080
:105CF000BDE8F18F10F00F4013F10F4012F10F408B
:105D000010F10F4058660000408004403C80044081
:105D1000009000400080004000100240000101009F
:105D20000C80004024800040012110F01F029140AF
:105D3000774A40B2430942F823107047012110F01E
:105D40001F029140734A40B2430942F82310704742
:105D500010B504007048046000F081F80028FBD002
:105D600000F002F8002010BDE0B5012002904FF4D1
:105D7000167001900020009033236748026867493D
:105D80000020FFF7BDFE66480068400840006449F7
:105D900008605720FFF7D2FF6248006850F001000A
:105DA000604908600020FFF7BFFF5F493320FCF720
:105DB000D3F95E493520FCF7CFF907BD80B55C48C3
:105DC00090F90000042818D1032059490870582080
:105DD000FFF7B4FF5FF400205649086050480068A0
:105DE00050F001004E4908605FF4002051490860FE
:105DF000494800685049086005E05820FFF79EFFB9
:105E000002204B49087001BD0120494908704548EE
:105E1000006850F0010043490860704780B50420D5
:105E2000434908705FF0FF30424908605820FFF78F
:105E30007BFF3F4890F9000001280FD03C4890F9C3
:105E400000000228F5D10420394908705FF0FF30C6
:105E5000384908605820FFF767FFEAE701BD10B531
:105E600082B0002400208DF80000FFF776FC80212E
:105E70001220FFF785FD002804D13048FCF7D6FA40
:105E8000002043E03220FCF7DAF90B22012100A8C0
